{
  "contractName": "Cert",
  "abi": [
    {
      "anonymous": false,
      "inputs": [
        {
          "indexed": true,
          "internalType": "bytes32",
          "name": "record",
          "type": "bytes32"
        },
        {
          "indexed": false,
          "internalType": "uint256",
          "name": "timestamp",
          "type": "uint256"
        },
        {
          "indexed": false,
          "internalType": "bool",
          "name": "returnValue",
          "type": "bool"
        }
      ],
      "name": "CertificateIssued",
      "type": "event"
    },
    {
      "anonymous": false,
      "inputs": [
        {
          "indexed": true,
          "internalType": "address",
          "name": "previousOwner",
          "type": "address"
        },
        {
          "indexed": true,
          "internalType": "address",
          "name": "newOwner",
          "type": "address"
        }
      ],
      "name": "OwnershipTransferred",
      "type": "event"
    },
    {
      "inputs": [],
      "name": "owner",
      "outputs": [
        {
          "internalType": "address",
          "name": "",
          "type": "address"
        }
      ],
      "stateMutability": "view",
      "type": "function"
    },
    {
      "inputs": [
        {
          "internalType": "bytes32",
          "name": "",
          "type": "bytes32"
        }
      ],
      "name": "records",
      "outputs": [
        {
          "internalType": "address",
          "name": "",
          "type": "address"
        }
      ],
      "stateMutability": "view",
      "type": "function"
    },
    {
      "inputs": [
        {
          "internalType": "address",
          "name": "newOwner",
          "type": "address"
        }
      ],
      "name": "transferOwnership",
      "outputs": [],
      "stateMutability": "nonpayable",
      "type": "function"
    },
    {
      "inputs": [
        {
          "internalType": "string",
          "name": "name",
          "type": "string"
        },
        {
          "internalType": "string",
          "name": "details",
          "type": "string"
        }
      ],
      "name": "issueCertificate",
      "outputs": [],
      "stateMutability": "nonpayable",
      "type": "function"
    },
    {
      "inputs": [],
      "name": "owningAuthority",
      "outputs": [
        {
          "internalType": "address",
          "name": "",
          "type": "address"
        }
      ],
      "stateMutability": "view",
      "type": "function"
    },
    {
      "inputs": [
        {
          "internalType": "string",
          "name": "name",
          "type": "string"
        },
        {
          "internalType": "string",
          "name": "details",
          "type": "string"
        },
        {
          "internalType": "bytes32",
          "name": "certificate",
          "type": "bytes32"
        }
      ],
      "name": "verifyCertificate",
      "outputs": [
        {
          "internalType": "bool",
          "name": "",
          "type": "bool"
        }
      ],
      "stateMutability": "view",
      "type": "function"
    }
  ],
  "bytecode": "0x608060405234801561001057600080fd5b50336000806101000a81548173ffffffffffffffffffffffffffffffffffffffff021916908373ffffffffffffffffffffffffffffffffffffffff160217905550610920806100606000396000f3fe608060405234801561001057600080fd5b50600436106100625760003560e01c806301e64725146100675780631b85318214610097578063211bbe71146100b55780638da5cb5b146100d1578063a090e4c4146100ef578063f2fde38b1461011f575b600080fd5b610081600480360381019061007c9190610573565b61013b565b60405161008e91906105e1565b60405180910390f35b61009f61016e565b6040516100ac91906105e1565b60405180910390f35b6100cf60048036038101906100ca9190610661565b610197565b005b6100d96102e5565b6040516100e691906105e1565b60405180910390f35b610109600480360381019061010491906106e2565b610309565b6040516101169190610792565b60405180910390f35b610139600480360381019061013491906107d9565b6103e4565b005b60016020528060005260406000206000915054906101000a900473ffffffffffffffffffffffffffffffffffffffff1681565b60008060009054906101000a900473ffffffffffffffffffffffffffffffffffffffff16905090565b60008054906101000a900473ffffffffffffffffffffffffffffffffffffffff1673ffffffffffffffffffffffffffffffffffffffff163373ffffffffffffffffffffffffffffffffffffffff16146101ef57600080fd5b6000848484846040516020016102089493929190610845565b60405160208183030381529060405280519060200120905060405160200161022f90610893565b6040516020818303038152906040528051906020012081141561025157600080fd5b336001600083815260200190815260200160002060006101000a81548173ffffffffffffffffffffffffffffffffffffffff021916908373ffffffffffffffffffffffffffffffffffffffff160217905550807fe2f856eb4bdb96dc07c8658ff6dc2faa0cba255b51e9af05a293fc28d74bd8ac4260016040516102d69291906108c1565b60405180910390a25050505050565b60008054906101000a900473ffffffffffffffffffffffffffffffffffffffff1681565b600080868686866040516020016103239493929190610845565b604051602081830303815290604052805190602001209050808314156103d55760008054906101000a900473ffffffffffffffffffffffffffffffffffffffff1673ffffffffffffffffffffffffffffffffffffffff166001600085815260200190815260200160002060009054906101000a900473ffffffffffffffffffffffffffffffffffffffff1673ffffffffffffffffffffffffffffffffffffffff1614156103d45760019150506103db565b5b60009150505b95945050505050565b60008054906101000a900473ffffffffffffffffffffffffffffffffffffffff1673ffffffffffffffffffffffffffffffffffffffff163373ffffffffffffffffffffffffffffffffffffffff161461043c57600080fd5b600073ffffffffffffffffffffffffffffffffffffffff168173ffffffffffffffffffffffffffffffffffffffff16141561047657600080fd5b8073ffffffffffffffffffffffffffffffffffffffff1660008054906101000a900473ffffffffffffffffffffffffffffffffffffffff1673ffffffffffffffffffffffffffffffffffffffff167f8be0079c531659141344cd1fd0a4f28419497f9722a3daafe3b4186f6b6457e060405160405180910390a3806000806101000a81548173ffffffffffffffffffffffffffffffffffffffff021916908373ffffffffffffffffffffffffffffffffffffffff16021790555050565b600080fd5b600080fd5b6000819050919050565b6105508161053d565b811461055b57600080fd5b50565b60008135905061056d81610547565b92915050565b60006020828403121561058957610588610533565b5b60006105978482850161055e565b91505092915050565b600073ffffffffffffffffffffffffffffffffffffffff82169050919050565b60006105cb826105a0565b9050919050565b6105db816105c0565b82525050565b60006020820190506105f660008301846105d2565b92915050565b600080fd5b600080fd5b600080fd5b60008083601f840112610621576106206105fc565b5b8235905067ffffffffffffffff81111561063e5761063d610601565b5b60208301915083600182028301111561065a57610659610606565b5b9250929050565b6000806000806040858703121561067b5761067a610533565b5b600085013567ffffffffffffffff81111561069957610698610538565b5b6106a58782880161060b565b9450945050602085013567ffffffffffffffff8111156106c8576106c7610538565b5b6106d48782880161060b565b925092505092959194509250565b6000806000806000606086880312156106fe576106fd610533565b5b600086013567ffffffffffffffff81111561071c5761071b610538565b5b6107288882890161060b565b9550955050602086013567ffffffffffffffff81111561074b5761074a610538565b5b6107578882890161060b565b9350935050604061076a8882890161055e565b9150509295509295909350565b60008115159050919050565b61078c81610777565b82525050565b60006020820190506107a76000830184610783565b92915050565b6107b6816105c0565b81146107c157600080fd5b50565b6000813590506107d3816107ad565b92915050565b6000602082840312156107ef576107ee610533565b5b60006107fd848285016107c4565b91505092915050565b600081905092915050565b82818337600083830152505050565b600061082c8385610806565b9350610839838584610811565b82840190509392505050565b6000610852828688610820565b915061085f828486610820565b915081905095945050505050565b50565b600061087d600083610806565b91506108888261086d565b600082019050919050565b600061089e82610870565b9150819050919050565b6000819050919050565b6108bb816108a8565b82525050565b60006040820190506108d660008301856108b2565b6108e36020830184610783565b939250505056fea264697066735822122083eb50ec071c0e56f8746297d735f64e2cfb13feb43e96df66e8c3b756362f7264736f6c63430008090033",
  "immutableReferences": {},
  "source": "//SPDX-License-Identifier: UNLICENSED\r\n\r\npragma solidity ^0.8.0;\r\n\r\nimport './Ownable.sol';\r\n\r\ncontract Cert is Ownable {\r\n  mapping (bytes32 => address) public records;\r\n\r\n  event CertificateIssued(bytes32 indexed record, uint256 timestamp, bool returnValue);\r\n\r\n    function issueCertificate(string calldata name, string calldata details) external onlyOwner {\r\n        bytes32 certificate = keccak256(abi.encodePacked(name, details));\r\n        require(certificate != keccak256(abi.encodePacked(\"\")));\r\n        records[certificate] = msg.sender;\r\n        emit CertificateIssued(certificate, block.timestamp, true);\r\n    }\r\n\r\n  function owningAuthority() external view returns (address) {\r\n    return owner;\r\n  }\r\n\r\n  function verifyCertificate(string calldata name, string calldata details, bytes32 certificate) external view returns (bool) {\r\n    bytes32 certificate2 = keccak256(abi.encodePacked(name, details));\r\n    if (certificate == certificate2) {\r\n      if (records[certificate] == owner) {\r\n        return true;\r\n      }\r\n    }\r\n    return false;\r\n  }\r\n}\r\n",
  "sourcePath": "C:\\Users\\Asus\\OneDrive\\Desktop\\code\\solidity\\blockCert\\contracts\\Cert.sol",
  "compiler": {
    "name": "solc",
    "version": "0.8.9+commit.e5eed63a.Emscripten.clang"
  },
  "schemaVersion": "3.4.3",
  "updatedAt": "2022-02-24T18:34:45.126Z",
  "devdoc": {
    "kind": "dev",
    "methods": {},
    "version": 1
  },
  "userdoc": {
    "kind": "user",
    "methods": {},
    "version": 1
  }
}